{
  "abi": [
    {
      "inputs": [
        {
          "internalType": "string",
          "name": "_greeting",
          "type": "string"
        },
        {
          "internalType": "contract IERC20",
          "name": "_token",
          "type": "address"
        }
      ],
      "stateMutability": "nonpayable",
      "type": "constructor"
    },
    {
      "inputs": [],
      "name": "Greeter_InvalidGreeting",
      "type": "error"
    },
    {
      "inputs": [],
      "name": "Greeter_OnlyOwner",
      "type": "error"
    },
    {
      "anonymous": false,
      "inputs": [
        {
          "indexed": false,
          "internalType": "string",
          "name": "_greeting",
          "type": "string"
        }
      ],
      "name": "GreetingSet",
      "type": "event"
    },
    {
      "inputs": [],
      "name": "OWNER",
      "outputs": [
        {
          "internalType": "address",
          "name": "",
          "type": "address"
        }
      ],
      "stateMutability": "view",
      "type": "function"
    },
    {
      "inputs": [],
      "name": "greet",
      "outputs": [
        {
          "internalType": "string",
          "name": "_greeting",
          "type": "string"
        },
        {
          "internalType": "uint256",
          "name": "_balance",
          "type": "uint256"
        }
      ],
      "stateMutability": "view",
      "type": "function"
    },
    {
      "inputs": [],
      "name": "greeting",
      "outputs": [
        {
          "internalType": "string",
          "name": "",
          "type": "string"
        }
      ],
      "stateMutability": "view",
      "type": "function"
    },
    {
      "inputs": [
        {
          "internalType": "string",
          "name": "_greeting",
          "type": "string"
        }
      ],
      "name": "setGreeting",
      "outputs": [],
      "stateMutability": "nonpayable",
      "type": "function"
    },
    {
      "inputs": [],
      "name": "token",
      "outputs": [
        {
          "internalType": "contract IERC20",
          "name": "",
          "type": "address"
        }
      ],
      "stateMutability": "view",
      "type": "function"
    }
  ],
  "bytecode": {
    "object": "0x60a06040523480156200001157600080fd5b5060405162000b9c38038062000b9c833981016040819052620000349162000186565b33608052600180546001600160a01b0319166001600160a01b0383161790556200005e8262000066565b5050620003e3565b6080516001600160a01b0316336001600160a01b0316146200009b57604051630bec364760e31b815260040160405180910390fd5b805160208201207f3a2db9fe7908dcc36d81824d2338fc3f1aff49ac357dd8c4840527fba27a5b9001620000e2576040516342883a0560e11b815260040160405180910390fd5b6000620000f08282620002e2565b507fad181ee258ff92d26bf7ed2e6b571ef1cba3afc45f028b863b0f02adaffc2f0681604051620001229190620003ae565b60405180910390a150565b634e487b7160e01b600052604160045260246000fd5b60005b838110156200016057818101518382015260200162000146565b50506000910152565b80516001600160a01b03811681146200018157600080fd5b919050565b600080604083850312156200019a57600080fd5b82516001600160401b0380821115620001b257600080fd5b818501915085601f830112620001c757600080fd5b815181811115620001dc57620001dc6200012d565b604051601f8201601f19908116603f011681019083821181831017156200020757620002076200012d565b816040528281528860208487010111156200022157600080fd5b6200023483602083016020880162000143565b80965050505050506200024a6020840162000169565b90509250929050565b600181811c908216806200026857607f821691505b6020821081036200028957634e487b7160e01b600052602260045260246000fd5b50919050565b601f821115620002dd57600081815260208120601f850160051c81016020861015620002b85750805b601f850160051c820191505b81811015620002d957828155600101620002c4565b5050505b505050565b81516001600160401b03811115620002fe57620002fe6200012d565b62000316816200030f845462000253565b846200028f565b602080601f8311600181146200034e5760008415620003355750858301515b600019600386901b1c1916600185901b178555620002d9565b600085815260208120601f198616915b828110156200037f578886015182559484019460019091019084016200035e565b50858210156200039e5787850151600019600388901b60f8161c191681555b5050505050600190811b01905550565b6020815260008251806020840152620003cf81604085016020870162000143565b601f01601f19169190910160400192915050565b60805161079762000405600039600081816071015261013501526107976000f3fe608060405234801561001057600080fd5b50600436106100675760003560e01c8063cfae321711610050578063cfae3217146100d2578063ef690cc0146100e8578063fc0c546a146100fd57600080fd5b8063117803e31461006c578063a4136862146100bd575b600080fd5b6100937f000000000000000000000000000000000000000000000000000000000000000081565b60405173ffffffffffffffffffffffffffffffffffffffff90911681526020015b60405180910390f35b6100d06100cb36600461041d565b61011d565b005b6100da610232565b6040516100b4929190610550565b6100f0610360565b6040516100b49190610572565b6001546100939073ffffffffffffffffffffffffffffffffffffffff1681565b3373ffffffffffffffffffffffffffffffffffffffff7f0000000000000000000000000000000000000000000000000000000000000000161461018c576040517f5f61b23800000000000000000000000000000000000000000000000000000000815260040160405180910390fd5b805160208201207f3a2db9fe7908dcc36d81824d2338fc3f1aff49ac357dd8c4840527fba27a5b90016101eb576040517f8510740a00000000000000000000000000000000000000000000000000000000815260040160405180910390fd5b60006101f7828261062e565b507fad181ee258ff92d26bf7ed2e6b571ef1cba3afc45f028b863b0f02adaffc2f06816040516102279190610572565b60405180910390a150565b606060008080546102429061058c565b80601f016020809104026020016040519081016040528092919081815260200182805461026e9061058c565b80156102bb5780601f10610290576101008083540402835291602001916102bb565b820191906000526020600020905b81548152906001019060200180831161029e57829003601f168201915b50506001546040517f70a0823100000000000000000000000000000000000000000000000000000000815233600482015294965073ffffffffffffffffffffffffffffffffffffffff16936370a08231935060240191506103199050565b602060405180830381865afa158015610336573d6000803e3d6000fd5b505050506040513d601f19601f8201168201806040525081019061035a9190610748565b90509091565b6000805461036d9061058c565b80601f01602080910402602001604051908101604052809291908181526020018280546103999061058c565b80156103e65780601f106103bb576101008083540402835291602001916103e6565b820191906000526020600020905b8154815290600101906020018083116103c957829003601f168201915b505050505081565b7f4e487b7100000000000000000000000000000000000000000000000000000000600052604160045260246000fd5b60006020828403121561042f57600080fd5b813567ffffffffffffffff8082111561044757600080fd5b818401915084601f83011261045b57600080fd5b81358181111561046d5761046d6103ee565b604051601f82017fffffffffffffffffffffffffffffffffffffffffffffffffffffffffffffffe0908116603f011681019083821181831017156104b3576104b36103ee565b816040528281528760208487010111156104cc57600080fd5b826020860160208301376000928101602001929092525095945050505050565b6000815180845260005b81811015610512576020818501810151868301820152016104f6565b5060006020828601015260207fffffffffffffffffffffffffffffffffffffffffffffffffffffffffffffffe0601f83011685010191505092915050565b60408152600061056360408301856104ec565b90508260208301529392505050565b60208152600061058560208301846104ec565b9392505050565b600181811c908216806105a057607f821691505b6020821081036105d9577f4e487b7100000000000000000000000000000000000000000000000000000000600052602260045260246000fd5b50919050565b601f82111561062957600081815260208120601f850160051c810160208610156106065750805b601f850160051c820191505b8181101561062557828155600101610612565b5050505b505050565b815167ffffffffffffffff811115610648576106486103ee565b61065c81610656845461058c565b846105df565b602080601f8311600181146106af57600084156106795750858301515b7fffffffffffffffffffffffffffffffffffffffffffffffffffffffffffffffff600386901b1c1916600185901b178555610625565b6000858152602081207fffffffffffffffffffffffffffffffffffffffffffffffffffffffffffffffe08616915b828110156106fc578886015182559484019460019091019084016106dd565b508582101561073857878501517fffffffffffffffffffffffffffffffffffffffffffffffffffffffffffffffff600388901b60f8161c191681555b5050505050600190811b01905550565b60006020828403121561075a57600080fd5b505191905056fea26469706673582212209640d61949a3120d03517f9655b0a2baddccbdfefaf0dd8e008fe343f7f033c964736f6c63430008130033",
    "linkReferences": {}
  },
  "methodIdentifiers": {
    "OWNER()": "117803e3",
    "greet()": "cfae3217",
    "greeting()": "ef690cc0",
    "setGreeting(string)": "a4136862",
    "token()": "fc0c546a"
  },
  "id": 16
}