{
  "abi": [
    {
      "inputs": [
        {
          "internalType": "string",
          "name": "_greeting",
          "type": "string"
        },
        {
          "internalType": "contract IERC20",
          "name": "_token",
          "type": "address"
        }
      ],
      "stateMutability": "nonpayable",
      "type": "constructor"
    },
    {
      "inputs": [],
      "name": "Greeter_InvalidGreeting",
      "type": "error"
    },
    {
      "inputs": [],
      "name": "Greeter_OnlyOwner",
      "type": "error"
    },
    {
      "anonymous": false,
      "inputs": [
        {
          "indexed": false,
          "internalType": "string",
          "name": "_greeting",
          "type": "string"
        }
      ],
      "name": "GreetingSet",
      "type": "event"
    },
    {
      "inputs": [],
      "name": "OWNER",
      "outputs": [
        {
          "internalType": "address",
          "name": "",
          "type": "address"
        }
      ],
      "stateMutability": "view",
      "type": "function"
    },
    {
      "inputs": [],
      "name": "greet",
      "outputs": [
        {
          "internalType": "string",
          "name": "_greeting",
          "type": "string"
        },
        {
          "internalType": "uint256",
          "name": "_balance",
          "type": "uint256"
        }
      ],
      "stateMutability": "view",
      "type": "function"
    },
    {
      "inputs": [],
      "name": "greeting",
      "outputs": [
        {
          "internalType": "string",
          "name": "",
          "type": "string"
        }
      ],
      "stateMutability": "view",
      "type": "function"
    },
    {
      "inputs": [
        {
          "internalType": "string",
          "name": "_greeting",
          "type": "string"
        }
      ],
      "name": "setGreeting",
      "outputs": [],
      "stateMutability": "nonpayable",
      "type": "function"
    },
    {
      "inputs": [],
      "name": "token",
      "outputs": [
        {
          "internalType": "contract IERC20",
          "name": "",
          "type": "address"
        }
      ],
      "stateMutability": "view",
      "type": "function"
    }
  ],
  "bytecode": {
    "object": "0x60a06040523480156200001157600080fd5b5060405162000a7538038062000a75833981016040819052620000349162000240565b33608052600180546001600160a01b0319166001600160a01b0383161790556200005e8262000066565b50506200037e565b6080516001600160a01b0316336001600160a01b0316146200009b57604051630bec364760e31b815260040160405180910390fd5b805160208201207f3a2db9fe7908dcc36d81824d2338fc3f1aff49ac357dd8c4840527fba27a5b9001620000e2576040516342883a0560e11b815260040160405180910390fd5b8051620000f790600090602084019062000134565b507fad181ee258ff92d26bf7ed2e6b571ef1cba3afc45f028b863b0f02adaffc2f06816040516200012991906200030d565b60405180910390a150565b828054620001429062000342565b90600052602060002090601f016020900481019282620001665760008555620001b1565b82601f106200018157805160ff1916838001178555620001b1565b82800160010185558215620001b1579182015b82811115620001b157825182559160200191906001019062000194565b50620001bf929150620001c3565b5090565b5b80821115620001bf5760008155600101620001c4565b634e487b7160e01b600052604160045260246000fd5b60005b838110156200020d578181015183820152602001620001f3565b838111156200021d576000848401525b50505050565b80516001600160a01b03811681146200023b57600080fd5b919050565b600080604083850312156200025457600080fd5b82516001600160401b03808211156200026c57600080fd5b818501915085601f8301126200028157600080fd5b815181811115620002965762000296620001da565b604051601f8201601f19908116603f01168101908382118183101715620002c157620002c1620001da565b81604052828152886020848701011115620002db57600080fd5b620002ee836020830160208801620001f0565b8096505050505050620003046020840162000223565b90509250929050565b60208152600082518060208401526200032e816040850160208701620001f0565b601f01601f19169190910160400192915050565b600181811c908216806200035757607f821691505b6020821081036200037857634e487b7160e01b600052602260045260246000fd5b50919050565b6080516106d5620003a0600039600081816071015261013501526106d56000f3fe608060405234801561001057600080fd5b50600436106100675760003560e01c8063cfae321711610050578063cfae3217146100d2578063ef690cc0146100e8578063fc0c546a146100fd57600080fd5b8063117803e31461006c578063a4136862146100bd575b600080fd5b6100937f000000000000000000000000000000000000000000000000000000000000000081565b60405173ffffffffffffffffffffffffffffffffffffffff90911681526020015b60405180910390f35b6100d06100cb3660046104bd565b61011d565b005b6100da610239565b6040516100b49291906105f7565b6100f0610367565b6040516100b49190610619565b6001546100939073ffffffffffffffffffffffffffffffffffffffff1681565b3373ffffffffffffffffffffffffffffffffffffffff7f0000000000000000000000000000000000000000000000000000000000000000161461018c576040517f5f61b23800000000000000000000000000000000000000000000000000000000815260040160405180910390fd5b805160208201207f3a2db9fe7908dcc36d81824d2338fc3f1aff49ac357dd8c4840527fba27a5b90016101eb576040517f8510740a00000000000000000000000000000000000000000000000000000000815260040160405180910390fd5b80516101fe9060009060208401906103f5565b507fad181ee258ff92d26bf7ed2e6b571ef1cba3afc45f028b863b0f02adaffc2f068160405161022e9190610619565b60405180910390a150565b6060600080805461024990610633565b80601f016020809104026020016040519081016040528092919081815260200182805461027590610633565b80156102c25780601f10610297576101008083540402835291602001916102c2565b820191906000526020600020905b8154815290600101906020018083116102a557829003601f168201915b50506001546040517f70a0823100000000000000000000000000000000000000000000000000000000815233600482015294965073ffffffffffffffffffffffffffffffffffffffff16936370a08231935060240191506103209050565b602060405180830381865afa15801561033d573d6000803e3d6000fd5b505050506040513d601f19601f820116820180604052508101906103619190610686565b90509091565b6000805461037490610633565b80601f01602080910402602001604051908101604052809291908181526020018280546103a090610633565b80156103ed5780601f106103c2576101008083540402835291602001916103ed565b820191906000526020600020905b8154815290600101906020018083116103d057829003601f168201915b505050505081565b82805461040190610633565b90600052602060002090601f0160209004810192826104235760008555610469565b82601f1061043c57805160ff1916838001178555610469565b82800160010185558215610469579182015b8281111561046957825182559160200191906001019061044e565b50610475929150610479565b5090565b5b80821115610475576000815560010161047a565b7f4e487b7100000000000000000000000000000000000000000000000000000000600052604160045260246000fd5b6000602082840312156104cf57600080fd5b813567ffffffffffffffff808211156104e757600080fd5b818401915084601f8301126104fb57600080fd5b81358181111561050d5761050d61048e565b604051601f82017fffffffffffffffffffffffffffffffffffffffffffffffffffffffffffffffe0908116603f011681019083821181831017156105535761055361048e565b8160405282815287602084870101111561056c57600080fd5b826020860160208301376000928101602001929092525095945050505050565b6000815180845260005b818110156105b257602081850181015186830182015201610596565b818111156105c4576000602083870101525b50601f017fffffffffffffffffffffffffffffffffffffffffffffffffffffffffffffffe0169290920160200192915050565b60408152600061060a604083018561058c565b90508260208301529392505050565b60208152600061062c602083018461058c565b9392505050565b600181811c9082168061064757607f821691505b602082108103610680577f4e487b7100000000000000000000000000000000000000000000000000000000600052602260045260246000fd5b50919050565b60006020828403121561069857600080fd5b505191905056fea26469706673582212208b0ab604617c503ed4cd6e6a243a56defd3ba82d0b9f7b7adf3973bcf2740fdf64736f6c634300080e0033",
    "linkReferences": {}
  },
  "methodIdentifiers": {
    "OWNER()": "117803e3",
    "greet()": "cfae3217",
    "greeting()": "ef690cc0",
    "setGreeting(string)": "a4136862",
    "token()": "fc0c546a"
  },
  "id": 8
}