{
  "abi": [
    {
      "inputs": [
        {
          "internalType": "string",
          "name": "_greeting",
          "type": "string"
        },
        {
          "internalType": "contract IERC20",
          "name": "_token",
          "type": "address"
        }
      ],
      "stateMutability": "nonpayable",
      "type": "constructor"
    },
    {
      "inputs": [],
      "name": "Greeter_InvalidGreeting",
      "type": "error"
    },
    {
      "inputs": [],
      "name": "Greeter_OnlyOwner",
      "type": "error"
    },
    {
      "anonymous": false,
      "inputs": [
        {
          "indexed": false,
          "internalType": "string",
          "name": "_greeting",
          "type": "string"
        }
      ],
      "name": "GreetingSet",
      "type": "event"
    },
    {
      "inputs": [],
      "name": "OWNER",
      "outputs": [
        {
          "internalType": "address",
          "name": "",
          "type": "address"
        }
      ],
      "stateMutability": "view",
      "type": "function"
    },
    {
      "inputs": [],
      "name": "greet",
      "outputs": [
        {
          "internalType": "string",
          "name": "_greeting",
          "type": "string"
        },
        {
          "internalType": "uint256",
          "name": "_balance",
          "type": "uint256"
        }
      ],
      "stateMutability": "view",
      "type": "function"
    },
    {
      "inputs": [],
      "name": "greeting",
      "outputs": [
        {
          "internalType": "string",
          "name": "",
          "type": "string"
        }
      ],
      "stateMutability": "view",
      "type": "function"
    },
    {
      "inputs": [],
      "name": "lastGreetingSetTime",
      "outputs": [
        {
          "internalType": "uint256",
          "name": "",
          "type": "uint256"
        }
      ],
      "stateMutability": "view",
      "type": "function"
    },
    {
      "inputs": [
        {
          "internalType": "string",
          "name": "_greeting",
          "type": "string"
        }
      ],
      "name": "setGreeting",
      "outputs": [],
      "stateMutability": "nonpayable",
      "type": "function"
    },
    {
      "inputs": [],
      "name": "token",
      "outputs": [
        {
          "internalType": "contract IERC20",
          "name": "",
          "type": "address"
        }
      ],
      "stateMutability": "view",
      "type": "function"
    }
  ],
  "bytecode": {
    "object": "0x60a06040523480156200001157600080fd5b5060405162000aaa38038062000aaa83398101604081905262000034916200024a565b33608052600180546001600160a01b0319166001600160a01b0383161790556200005e8262000066565b505062000388565b6080516001600160a01b0316336001600160a01b0316146200009b57604051630bec364760e31b815260040160405180910390fd5b805160208201207f3a2db9fe7908dcc36d81824d2338fc3f1aff49ac357dd8c4840527fba27a5b9001620000e2576040516342883a0560e11b815260040160405180910390fd5b8051620000f79060009060208401906200013e565b506200010242600255565b7fad181ee258ff92d26bf7ed2e6b571ef1cba3afc45f028b863b0f02adaffc2f068160405162000133919062000317565b60405180910390a150565b8280546200014c906200034c565b90600052602060002090601f016020900481019282620001705760008555620001bb565b82601f106200018b57805160ff1916838001178555620001bb565b82800160010185558215620001bb579182015b82811115620001bb5782518255916020019190600101906200019e565b50620001c9929150620001cd565b5090565b5b80821115620001c95760008155600101620001ce565b634e487b7160e01b600052604160045260246000fd5b60005b8381101562000217578181015183820152602001620001fd565b8381111562000227576000848401525b50505050565b80516001600160a01b03811681146200024557600080fd5b919050565b600080604083850312156200025e57600080fd5b82516001600160401b03808211156200027657600080fd5b818501915085601f8301126200028b57600080fd5b815181811115620002a057620002a0620001e4565b604051601f8201601f19908116603f01168101908382118183101715620002cb57620002cb620001e4565b81604052828152886020848701011115620002e557600080fd5b620002f8836020830160208801620001fa565b80965050505050506200030e602084016200022d565b90509250929050565b602081526000825180602084015262000338816040850160208701620001fa565b601f01601f19169190910160400192915050565b600181811c908216806200036157607f821691505b6020821081036200038257634e487b7160e01b600052602260045260246000fd5b50919050565b608051610700620003aa60003960008181607c015261015701526107006000f3fe608060405234801561001057600080fd5b50600436106100725760003560e01c8063e8df73b511610050578063e8df73b5146100f3578063ef690cc01461010a578063fc0c546a1461011f57600080fd5b8063117803e314610077578063a4136862146100c8578063cfae3217146100dd575b600080fd5b61009e7f000000000000000000000000000000000000000000000000000000000000000081565b60405173ffffffffffffffffffffffffffffffffffffffff90911681526020015b60405180910390f35b6100db6100d63660046104e8565b61013f565b005b6100e5610264565b6040516100bf929190610622565b6100fc60025481565b6040519081526020016100bf565b610112610392565b6040516100bf9190610644565b60015461009e9073ffffffffffffffffffffffffffffffffffffffff1681565b3373ffffffffffffffffffffffffffffffffffffffff7f000000000000000000000000000000000000000000000000000000000000000016146101ae576040517f5f61b23800000000000000000000000000000000000000000000000000000000815260040160405180910390fd5b805160208201207f3a2db9fe7908dcc36d81824d2338fc3f1aff49ac357dd8c4840527fba27a5b900161020d576040517f8510740a00000000000000000000000000000000000000000000000000000000815260040160405180910390fd5b8051610220906000906020840190610420565b5061022a42600255565b7fad181ee258ff92d26bf7ed2e6b571ef1cba3afc45f028b863b0f02adaffc2f06816040516102599190610644565b60405180910390a150565b606060008080546102749061065e565b80601f01602080910402602001604051908101604052809291908181526020018280546102a09061065e565b80156102ed5780601f106102c2576101008083540402835291602001916102ed565b820191906000526020600020905b8154815290600101906020018083116102d057829003601f168201915b50506001546040517f70a0823100000000000000000000000000000000000000000000000000000000815233600482015294965073ffffffffffffffffffffffffffffffffffffffff16936370a082319350602401915061034b9050565b602060405180830381865afa158015610368573d6000803e3d6000fd5b505050506040513d601f19601f8201168201806040525081019061038c91906106b1565b90509091565b6000805461039f9061065e565b80601f01602080910402602001604051908101604052809291908181526020018280546103cb9061065e565b80156104185780601f106103ed57610100808354040283529160200191610418565b820191906000526020600020905b8154815290600101906020018083116103fb57829003601f168201915b505050505081565b82805461042c9061065e565b90600052602060002090601f01602090048101928261044e5760008555610494565b82601f1061046757805160ff1916838001178555610494565b82800160010185558215610494579182015b82811115610494578251825591602001919060010190610479565b506104a09291506104a4565b5090565b5b808211156104a057600081556001016104a5565b7f4e487b7100000000000000000000000000000000000000000000000000000000600052604160045260246000fd5b6000602082840312156104fa57600080fd5b813567ffffffffffffffff8082111561051257600080fd5b818401915084601f83011261052657600080fd5b813581811115610538576105386104b9565b604051601f82017fffffffffffffffffffffffffffffffffffffffffffffffffffffffffffffffe0908116603f0116810190838211818310171561057e5761057e6104b9565b8160405282815287602084870101111561059757600080fd5b826020860160208301376000928101602001929092525095945050505050565b6000815180845260005b818110156105dd576020818501810151868301820152016105c1565b818111156105ef576000602083870101525b50601f017fffffffffffffffffffffffffffffffffffffffffffffffffffffffffffffffe0169290920160200192915050565b60408152600061063560408301856105b7565b90508260208301529392505050565b60208152600061065760208301846105b7565b9392505050565b600181811c9082168061067257607f821691505b6020821081036106ab577f4e487b7100000000000000000000000000000000000000000000000000000000600052602260045260246000fd5b50919050565b6000602082840312156106c357600080fd5b505191905056fea264697066735822122045c961ceb31852f67c63675c5163bfe4f37ac57a06ecedc446a773a656934f5f64736f6c634300080e0033",
    "linkReferences": {}
  },
  "methodIdentifiers": {
    "OWNER()": "117803e3",
    "greet()": "cfae3217",
    "greeting()": "ef690cc0",
    "lastGreetingSetTime()": "e8df73b5",
    "setGreeting(string)": "a4136862",
    "token()": "fc0c546a"
  },
  "id": 8
}